:020000040000FA
:04000000B6EF0AF05D
:10109F00010001C58AC58812000101C06B1200C58D
:1010AF00867AEC08F01200C5827AEC08F01200C5BF
:1010BF00807AEC08F01200C5847AEC08F012005721
:1010CF00EC08F051EC08F0C9501200016E01C0C9D4
:1010DF00FF7AEC08F012001E0E936EF19E818E8146
:1010EF008C818A12009EA67FEF08F081EF08F07ABC
:1010FF00EF08F09E96120094869488280EC66E31E3
:10110F000EC86EC79CC78E9E96A19612000A6E00DF
:10111F000E016E095019EC09F0010E016E0A5019FB
:10112F00EC09F01200016E9EA8A0EF08F0A2EF08E4
:10113F00F09BEF08F09E9801C0ADFF1200096E5FA3
:10114F00EC08F0D00E6DEC08F009506DEC08F008CB
:10115F00506DEC08F063EC08F01200948E949CAC88
:10116F009CAC8AAC98AC84AB8EAB9CAB88B89681A8
:10117F000EAF6E9D989D9A9E989E9A1200C29AC22B
:10118F0088C296C294C292C280C19AC198C186C1C8
:10119F0094C182C190C08EC094C082C090C08AC0DA
:1011AF0098C0961200026E5FEC08F0A00E6DEC086E
:1011BF00F002506DEC08F05BEC08F0A10E6DEC083E
:1011CF00F067EC08F0036E63EC08F00350120002B6
:1011DF006E5FEC08F0D00E6DEC08F002506DEC086D
:1011EF00F05BEC08F0D10E6DEC08F067EC08F00343
:1011FF006E63EC08F003501200C282C2B20AEF090C
:10120F00F00CEF09F005EF09F0C450046E036AC348
:10121F0050056E066A03500510016E045006100249
:10122F006E1200026E01B01FEF09F022EF09F0827B
:10123F008223EF09F0829202C083FF828482949509
:10124F008E828082928284829483BE31EF09F03342
:10125F00EF09F02AEF09F08290959E1200056E5F5C
:10126F00EC08F0A00E6DEC08F005506DEC08F004E2
:10127F00506DEC08F063EC08F00B0E076EB80E061D
:10128F006E0606D8A0070606500710D8A452EF091D
:10129F00F054EF09F048EF09F01200000EEFEC08E0
:1012AF00F00A6E0A508009086E000EA6EC08F002D4
:1012BF000EEFEC08F0000E086E020EA6EC08F0938D
:1012CF000E086E070EA6EC08F0000EEFEC08F00A01
:1012DF006E0A507F0B086E000EA6EC08F012008D00
:1012EF00EF09F002C0F6FF03C0F7FFF86A050EF72B
:1012FF006403D00800F55005D0F6CFE9FFF7CFEA29
:10130F00FFEF509AEC08F0024A032A02C0F6FF03DF
:10131F00C0F7FFF86A050EF76403D00800F5500513
:10132F00D0F6CFE9FFF7CFEAFFEF500009D8A4A31B
:10133F00EF09F0A5EF09F079EF09F012000350045F
:10134F0010D8B4ADEF09F0AFEF09F0D3EF09F0010A
:10135F000E056EB7EF09F0D89003360436052A0450
:10136F00AEBCEF09F0BEEF09F0B3EF09F003500187
:10137F005C04500258D8A0C7EF09F0C9EF09F0CDAF
:10138F00EF09F00350015E0450025AD89004320363
:10139F0032052EBEEF09F001C001F002C002F012BB
:0113AF00003D
:1013B10020202056494557204C4F472020202020EF
:1013C10020000000202020434C454152204C4F4733
:1013D1002020202000000000202020534554204CD4
:1013E1004F47202020202020000000002020204402
:1013F1004F574E4C4F4144204C4F472000000000B6
:101401004F4E00474E0047310047320047330047F7
:101411003400473500475200432000000E016E059D
:101421005019EC09F02BEF0AF0010E016E03C0F622
:10143100FF04C0F7FFF86A050EF76403D00800F552
:101441005005D0F6CFE9FFF7CFEAFFEF5019EC09CD
:10145100F0034A042A03C0F6FF04C0F7FFF86A0547
:101461000EF76403D00800F55005D0F6CFE9FFF779
:10147100CFEAFFEF500009D8A441EF0AF043EF0A89
:10148100F015EF0AF01200016EDDEC0DF0026E01B5
:1014910050D8A44EEF0AF050EF0AF053EF0AF002D1
:1014A100507BEF0AF00104D8A459EF0AF05BEF0A70
:1014B100F07AEF0AF00228D8B461EF0AF063EF0A7C
:1014C100F06EEF0AF05950D8B469EF0AF06BEF0AE9
:1014D100F06EEF0AF0596A50EF0AF00228D8A474AE
:1014E100EF0AF076EF0AF07AEF0AF0010E596E7A00
:1014F100EF0AF0FF0E1200000E066E000E056E03DD
:10150100500410D8B487EF0AF089EF0AF0B1EF0A5E
:10151100F0010E076E91EF0AF0D8900336043607FA
:101521002A04AE96EF0AF098EF0AF08DEF0AF0D890
:1015310090053606360350015C04500258D8A0A429
:10154100EF0AF0A6EF0AF0ABEF0AF00350015E04D8
:1015510050025A0580D89004320332072E98EF0AC0
:10156100F005C001F006C002F01200B10EF66E13D4
:101571000EF76E000EF86E00EE60F010EE6BF009E3
:1015810000F5CFEEFFE550E150FAE19F0EF66E1047
:101591000EF76E000EF86E0900F5CF57F00900F551
:1015A100CF58F00900F5CF59F002EE00F0AA0EEE87
:1015B1006AE806FDE10101C06BBF6BBE6B00EECBBB
:1015C100F0090EEE6AE806FDE100EE3CF01B0EEEBE
:1015D1006AE806FDE1000EF86E0001D1EF0BF002A2
:1015E1000EEFEC08F03C6E010EEFEC08F03D6E00E2
:1015F1000EEFEC08F03E6E3CAC01EF0BF003EF0B8D
:10160100F00FEF0BF03C380F0B010B300F0001CB4B
:101611006F3C500F0B300FCC6F19EF0BF03C380FB4
:101621000B030B300F0001CB6F3C500F0B300FCC75
:101631006F3A0ECD6F3D380F0B0F0B300FCE6F3D54
:10164100500F0B300FCF6F3A0ED06F3E380F0B0F8C
:101651000B300FD16F3E500F0B300FD26FD36B1287
:1016610000546AE60E036E2F0E046E800E056E0E98
:10167100EC0AF0A20E036E2F0E046EC00E056E0E64
:10168100EC0AF0F40E066E010E076E000E086E00F5
:101691000E096E67EF0BF0E80E0A6E030E0B6E007B
:1016A1000E0C6E000E0D6E0A06000E0B5A0C5A0D32
:1016B1005A0A280AE10B2808E10C2806E10D28D86E
:1016C100A465EF0BF067EF0BF054EF0BF00606008B
:1016D1000E075A085A095A06280AE1072808E1089C
:1016E1002806E10928D8A478EF0BF07AEF0BF04C2B
:1016F100EF0BF0010E0101C06F1200956A9450F8D2
:101701000B946E8290C30E036ECD0EE82EFED703AE
:101711002EFCD70000000E016E330E19EC09F01BF0
:101721000E036E9E0EE82EFED7032EFCD700D000CE
:101731000E016E330E19EC09F0A60EE82EFED7004D
:10174100D0000E016E330E19EC09F000D000D0006C
:1017510000000E016E020E19EC09F0A60EE82EFE35
:10176100D700D0000E016E380E19EC09F0A60EE874
:101771002EFED700D0000E016E010E19EC09F00407
:101781000E036E3E0EE82EFED7032EFCD7000E018F
:101791006E0C0E19EC09F0A60EE82EFED700D01241
:1017A1000054EC08F073EC08F07EEC0BF0C6EC088A
:1017B100F0B5EC08F083EC08F055EC09F0010E44AB
:1017C100EC0AF0566EFDEF0BF004EC0FF0DFEF0BBF
:1017D100F060EC0EF0DFEF0BF0B0EC10F0DFEF0B90
:1017E100F014EC12F0DFEF0BF031EC0BF0DFEF0B4C
:1017F100F064EC15F0DFEF0BF00101C0513A6E3BE4
:101801006A3B50000AD8B408EF0CF0DFEF0BF03A56
:1018110050000AD8B4E5EF0BF0010AD8B4E9EF0B98
:10182100F0030AD8B4EDEF0BF0010AD8B4F5EF0BD1
:10183100F0070AD8B4F9EF0BF0010AD8B4F1EF0BB5
:10184100F0DFEF0BF000EF00F0066A02BE2DEF0CA7
:10185100F02BEF0CF033EF0CF0016C021ED8B0024C
:101861002A010E066E04BE3AEF0CF038EF0CF03E82
:10187100EF0CF0036C041ED8B0042A03500410D8F6
:10188100B445EF0CF047EF0CF06BEF0CF0010E05D7
:101891006E4FEF0CF0D89003360436052A04AE548F
:1018A100EF0CF056EF0CF04BEF0CF00350015C0421
:1018B100500258D8A05FEF0CF061EF0CF065EF0C0F
:1018C100F00350015E0450025AD8900432033205ED
:1018D1002E56EF0CF00650D8B471EF0CF073EF0CEC
:1018E100F077EF0CF0016C021ED8B0022A01C001A2
:1018F100F002C002F01200066A04BE84EF0CF0820E
:10190100EF0CF08AEF0CF0036C041ED8B0042A012E
:101911000E066E02BE91EF0CF08FEF0CF097EF0CFC
:10192100F0016C021ED8B0022A010E061A000E0840
:101931006E000E076E03500410D8B4A2EF0CF0A491
:10194100EF0CF0CCEF0CF0010E056EACEF0CF0D803
:101951009003360436052A04AEB1EF0CF0B3EF0C58
:10196100F0A8EF0CF0D890073608360350015C045C
:10197100500258D8A0BFEF0CF0C1EF0CF0C6EF0C2D
:10198100F00350015E0450025A0780D890043203DC
:1019910032052EB3EF0CF00650D8B4D2EF0CF0D4D0
:1019A100EF0CF0D8EF0CF0076C081ED8B0082A072E
:1019B100C001F008C002F01200CBC009F0CCC00A8F
:1019C100F0CEC00BF0CFC00CF0D1C00DF0D2C00EE4
:1019D100F04F50030DF350B00FD96EDA6ADF500F9C
:1019E1006E4F50030DF350B10FD96EDA6ADF50100C
:1019F1006E55C001F0026A000E046E0A0E036E7C81
:101A0100EC0CF00150300F116E55C001F0026A006C
:101A11000E046E0A0E036E25EC0CF00150300F120D
:101A21006E0A0E5418D8A418EF0DF01AEF0DF03B02
:101A3100EF0DF0000E146E000E136E000E166E0008
:101A41000E156E13500A0FDAEC08F0046E135036BF
:101A5100EC09F0134A142A154A162A165009E15ABC
:101A61000E155CD8A037EF0DF039EF0DF022EF0D18
:101A7100F0090E546E000E166E000E156E1550090B
:101A81000FD96EDA6ADF50046E54500A0DF3501507
:101A91002436EC09F0154A162A165009E10A0E15EA
:101AA1005CD8A056EF0DF058EF0DF03FEF0DF0545C
:101AB1002A120030343134376E3750D8A463EF0D19
:101AC100F065EF0DF06FEF0DF0000E2E6E000E2F92
:101AD1006E000E306E000E316EDCEF0DF02EC03256
:101AE100F02FC033F030C034F031C035F0200E7F1C
:101AF100EF0DF0D8903532343233323232E82E7A6B
:101B0100EF0DF03250366E308EFF0E2E16FF0E2F77
:101B110016FF0E3016000E3116960E375E37BE9642
:101B2100EF0DF094EF0DF0ACEF0DF03750800A9708
:101B31000FD8B09EEF0DF0A0EF0DF0A2EF0DF06504
:101B4100EF0DF0D890313230322F322E32373EA2A3
:101B5100EF0DF0C4EF0DF01F0E3764B2EF0DF0B4CE
:101B6100EF0DF0BCEF0DF065EF0DF0D8902E362F94
:101B7100363036313637063750D8A4C2EF0DF0C4AF
:101B8100EF0DF0B6EF0DF03650D8B4CAEF0DF0CC32
:101B9100EF0DF0D4EF0DF0311E301E2F1E2E6C0014
:101BA1000E2F22302231222EC02EF02FC02FF030E6
:101BB100C030F031C031F01200819A818E818C8168
:101BC100B2E5EF0DF0E7EF0DF0EAEF0DF0010E5F7A
:101BD100EF0EF081B4EFEF0DF0F1EF0DF0F4EF0D3A
:101BE100F0040E5FEF0EF081B6F9EF0DF0FBEF0D93
:101BF100F0FEEF0DF0070E5FEF0EF081B803EF0E70
:101C0100F005EF0EF008EF0EF00A0E5FEF0EF08117
:101C11009C818E818A81B210EF0EF012EF0EF015C9
:101C2100EF0EF0020E5FEF0EF081B41AEF0EF01C12
:101C3100EF0EF01FEF0EF0050E5FEF0EF081B624F0
:101C4100EF0EF026EF0EF029EF0EF0080E5FEF0E0B
:101C5100F081B82EEF0EF030EF0EF033EF0EF00BF7
:101C61000E5FEF0EF0819E818A818C81B23BEF0E77
:101C7100F03DEF0EF040EF0EF0030E5FEF0EF0813E
:101C8100B445EF0EF047EF0EF04AEF0EF0060E5F8F
:101C9100EF0EF081B64FEF0EF051EF0EF054EF0E54
:101CA100F0090E5FEF0EF081B859EF0EF05BEF0E09
:101CB100F05EEF0EF00C0E5FEF0EF0FF0E12005310
:101CC10050D8A466EF0EF068EF0EF074EF0EF080BE
:101CD1000E096E2A0E8EEC08F0C00E096E200E8ED3
:101CE100EC08F07EEF0EF0800E096E200E8EEC08EF
:101CF100F0C00E096E2A0E8EEC08F05604D8A484AA
:101D0100EF0EF086EF0EF0A5EF0EF05250D8B48C26
:101D1100EF0EF08EEF0EF08FEF0EF052065304D857
:101D2100A495EF0EF097EF0EF09AEF0EF0536ACCF8
:101D3100EF0EF05150D8B4A0EF0EF0A2EF0EF0CCA0
:101D4100EF0EF05106CCEF0EF0020E5618D8A4ACEF
:101D5100EF0EF0AEEF0EF0CCEF0EF0030E5260B4CA
:101D6100EF0EF0B6EF0EF0B7EF0EF0522A5350D847
:101D7100A4BDEF0EF0BFEF0EF0C3EF0EF0010E5356
:101D81006ECCEF0EF0020E5160C9EF0EF0CBEF0EEC
:101D9100F0CCEF0EF0512A5150140DF350600F0B9F
:101DA1006E0BC003F0046A810E056E0EEC0AF05151
:101DB10050140DF350740F0B6E0BC003F0046AC185
:101DC1000E056E0EEC0AF00B0E5618D8A4EBEF0EB2
:101DD100F0EDEF0EF0F3EF0EF05250020F0101C0E3
:101DE1006F03EF0FF00C0E5618D8A4FAEF0EF0FCAB
:101DF100EF0EF003EF0FF0000E016E010E19EC096A
:101E0100F00101C06B1200B30E036E2F0E046E8041
:101E11000E056E0EEC0AF0CB0E036E046AC00E05C1
:101E21006E0EEC0AF04F50030DF350B00F386E38C0
:101E3100C003F0046ACA0E056E0EEC0AF0010E44EE
:101E4100EC0AF0396EF0EC0AF03904D8A42BEF0F4C
:101E5100F02DEF0FF04EEF0FF0080E4F185010D885
:101E6100A435EF0FF037EF0FF03DEF0FF0000E50FC
:101E71006E010E4F6E4AEF0FF0505007E1070E4F03
:101E81005CD8B046EF0FF048EF0FF04AEF0FF04F7C
:101E91004A502ADDEC0CF082EF0FF0020E3918D80F
:101EA100A455EF0FF057EF0FF073EF0FF0080E4F3F
:101EB100185010D8A45FEF0FF061EF0FF063EF0F30
:101EC100F037EF0FF0505009E1020E4F5CD8A06CD3
:101ED100EF0FF06EEF0FF04AEF0FF04F06D8A05062
:101EE100064AEF0FF0030E3918D8A47AEF0FF07CF1
:101EF100EF0FF082EF0FF0000E506E080E4F6E4A9A
:101F0100EF0FF0AE0E196E470E1A6E250E1B6E41C5
:101F11000E1C6E04EC09F001C007F002C008F009C4
:101F21006A0A6A000ED6EC0FF007C015F008C01659
:101F3100F009C017F00AC018F09CEC13F015C02E80
:101F4100F016C02FF017C030F018C031F05AEC0D68
:101F5100F02E50556ECE0E096E55C001F0026A008A
:101F61000E046E0A0E036E7CEC0CF00150300F8EE5
:101F7100EC08F0CF0E096E55C001F0026A000E04A4
:101F81006E0A0E036E25EC0CF00150300F8EEC083A
:101F9100F00B0E3918D8A4D0EF0FF0D2EF0FF0D517
:101FA100EF0FF0010E0101C06F12000F6E0F50D83C
:101FB100B4DDEF0FF0DFEF0FF001EF10F00ABEE636
:101FC100EF0FF0E4EF0FF001EF10F007C00BF00896
:101FD100C00CF009C00DF00AC00EF00B1E0C1E0D56
:101FE1001E0E1E0B2A000E0C220D220E220BC011FA
:101FF100F00CC012F00DC013F00EC014F009EF1078
:10200100F007C011F008C012F009C013F00AC014A3
:10201100F00750081009100A10D8A412EF10F0149C
:10202100EF10F01EEF10F0000E076E000E086E00AC
:102031000E096E000E0A6EAFEF10F0960E106E28AC
:10204100EF10F0102AD890143213321232113200EC
:102051000E11140B6E000E12140C6E000E13140DE3
:102061006EFE0E14140E6E0B500C100D100E10D8C7
:10207100A43DEF10F03FEF10F022EF10F04DEF1004
:10208100F0102A010E1126000E122213221422D85A
:10209100901432133212321132000E11140B6E00F1
:1020A1000E12140C6E000E13140D6EFF0E14140E8E
:1020B1006E0B500C100D100E10D8A462EF10F064CE
:1020C100EF10F041EF10F06CEF10F01006D8901106
:1020D1003612361336143613BE71EF10F073EF104B
:1020E100F07BEF10F0020E106079EF10F07BEF1033
:1020F100F066EF10F010B080EF10F082EF10F08377
:10210100EF10F0139ED890103210C00BF00C6A0D36
:102111006A0E6A0BC00EF00D6A0C6A0B6A0B501145
:10212100120C5012120D5013120E5014120F50D8DF
:10213100B49DEF10F09FEF10F0A7EF10F00ABEA6CC
:10214100EF10F0A4EF10F0A7EF10F0148E11C007FC
:10215100F012C008F013C009F014C00AF012001008
:102161006AC40E036E2F0E046E800E056E0EEC0A0D
:10217100F057505810D8B4C0EF10F0C2EF10F05C17
:10218100EF11F0106A4FEF11F01050110D000EF326
:1021910024D96E020EF420DA6E1050300FDF6E017A
:1021A1000E116E1104D8B4D8EF10F0DAEF10F0EC84
:1021B100EF10F00A0E1118D8B4E1EF10F0E3EF10B0
:1021C100F0ECEF10F00D0E1118D8A4EAEF10F0ECBE
:1021D100EF10F0FEEF10F01050110D000EF3240679
:1021E1006E020EF420076E11500624D96E000E0700
:1021F10020DA6E200EDF6E36EF11F0040E1118D8C2
:10220100B405EF11F007EF11F010EF11F0070E1107
:1022110018D8A40EEF11F010EF11F022EF11F01009
:1022210050110D000EF324066E020EF420076E11FC
:10223100500624D96E000E0720DA6E3A0EDF6E3694
:10224100EF11F01050110D000EF324066E020EF482
:1022510020076E11500624D96E000E0720DA6E4752
:1022610050DAEC08F0DF6E474A482A112A0F0E11A6
:10227100643DEF11F03FEF11F0D2EF10F01050116B
:102281000D000EF324066E020EF420076E115006A7
:1022910024D96E000E0720DA6EDF6A102A5450101E
:1022A1005CD8A056EF11F058EF11F0C5EF10F00017
:1022B1000E586E000E576E5604D8A462EF11F064EA
:1022C100EF11F079EF11F0FF0E5424066E076AFF4B
:1022D1000E07220650455C07504658D8B073EF11DF
:1022E100F075EF11F079EF11F0454A462A8EEF11A2
:1022F100F0020E5618D8A480EF11F082EF11F08E83
:10230100EF11F045504610D8B489EF11F08BEF1161
:10231100F08EEF11F04506D8A046060C0E5618D8DF
:10232100A495EF11F097EF11F0A6EF11F0010E0156
:1023310001C06F000E586E010E576E000E466E0002
:102341000E456E000E486E000E476E5450D8A4AC78
:10235100EF11F0AEEF11F000EF12F0000E016E017F
:102361000E19EC09F0D50E036E2F0E046E800E05CA
:102371006E0EEC0AF0800E036E2F0E046EC00E0579
:102381006E0EEC0AF0F40E086E010E096E000E0AD4
:102391006E000E0B6EE8EF11F0E80E0C6E030E0DE1
:1023A1006E000E0E6E000E0F6E0C06000E0D5A0E14
:1023B1005A0F5A0C280AE10D2808E10E2806E10FF0
:1023C10028D8A4E6EF11F0E8EF11F0D5EF11F008ED
:1023D10006000E095A0A5A0B5A08280AE109280868
:1023E100E10A2806E10B28D8A4F9EF11F0FBEF115F
:1023F100F0CDEF11F0010E0101C06F13EF12F011DA
:102401000E4502F3CF06F0F4CF07F04602F3500772
:1024110026000E0624036E020E0720046EC00E0570
:102421006E0EEC0AF012000101BC6B6D0E026E2FF4
:102431000E036E77EC09F00101BC6BABEF12F0BC3F
:1024410051110D000EF324D96E010EF420DA6EBC89
:1024510051300FDF6E010EBD6FBD05D8B433EF12E1
:10246100F035EF12F047EF12F00A0EBD19D8B43C67
:10247100EF12F03EEF12F047EF12F00D0EBD19D83A
:10248100A445EF12F047EF12F059EF12F0BC5111D1
:102491000D000EF324066E010EF420076EBD5106E9
:1024A10024D96E000E0720DA6E200EDF6E92EF1235
:1024B100F0040EBD19D8B460EF12F062EF12F06BA8
:1024C100EF12F0070EBD19D8A469EF12F06BEF12ED
:1024D100F07DEF12F0BC51110D000EF324066E01D8
:1024E1000EF420076EBD510624D96E000E0720DAC6
:1024F1006E3A0EDF6E92EF12F0BC51110D000EF329
:1025010024066E010EF420076EBD510624D96E001B
:102511000E0720DA6EBE51DAEC08F0DF6E0101BE63
:102521004BBF2BBD2B0F0EBD6599EF12F09BEF1228
:10253100F02DEF12F0BC51110D000EF324066E01C7
:102541000EF420076EBD510624D96E000E0720DA65
:102551006EDF6ABC2B5450BC5DD8A0B2EF12F0B450
:10256100EF12F020EF12F05450D8A4BAEF12F0BCE1
:10257100EF12F018EF13F0000E016E010E19EC09C5
:10258100F0D50E036E2F0E046E800E056E0EEC0A52
:10259100F0800E036E2F0E046EC00E056E0EEC0A57
:1025A100F0F40E0101AA6F010EAB6F000EAC6F00CB
:1025B1000EAD6FF7EF12F0E80EAE6F030EAF6F00C6
:1025C1000EB06F000EB16FAE07000EAF5BB05BB126
:1025D1005BAE290AE1AF2908E1B02906E1B129D8AA
:1025E100A4F5EF12F0F7EF12F0E4EF12F0AA0700F2
:1025F1000EAB5BAC5BAD5BAA290AE1AB2908E1AC90
:102601002906E1AD29D8A408EF13F00AEF13F0DC95
:10261100EF12F0D50E026E2F0E036E77EC09F07DEE
:102621000E026E2F0E036E77EC09F094EF13F0009B
:102631000EBB6F000EBA6F38EF13F0110EBA03F331
:10264100CF06F0F4CF07F0BB03F3500726000E06C8
:1026510024026E010E0720036E77EC09F07D0E0255
:102661006E2F0E036E77EC09F00101BA4BBB2B54B0
:1026710050066E076A0650BA5D0750BB59D8A04490
:10268100EF13F046EF13F01EEF13F0000E016E0191
:102691000E19EC09F0910E036E2F0E046E800E05DB
:1026A1006E0EEC0AF0A20E036E2F0E046EC00E0524
:1026B1006E0EEC0AF0F40E0101B26F010EB36F0061
:1026C1000EB46F000EB56F81EF13F0E80EB66F0315
:1026D1000EB76F000EB86F000EB96FB607000EB7D8
:1026E1005BB85BB95BB6290AE1B72908E1B82906ED
:1026F100E1B929D8A47FEF13F081EF13F06EEF1346
:10270100F0B207000EB35BB45BB55BB2290AE1B36B
:102711002908E1B42906E1B529D8A492EF13F09470
:10272100EF13F066EF13F0010E0101C06F000EBF51
:102731006F000EBE6F12001850800B256E185018D6
:10274100242C6E17AEA7EF13F0A9EF13F0AAEF1325
:10275100F02C802C50D8B4B0EF13F0B2EF13F0C6C8
:10276100EF13F02C28D8A4B8EF13F0BAEF13F0C28E
:10277100EF13F0000E156E000E166E000E176E00B0
:102781000E186E178E186ACEEF13F0000E156E003C
:102791000E166E000E176E000E186E1C50800B2563
:1027A1001A1C501C242D6E1BAED9EF13F0DBEF1356
:1027B100F0DCEF13F02D802D50D8B4E2EF13F0E4EC
:1027C100EF13F0F8EF13F02D28D8A4EAEF13F0EC93
:1027D100EF13F0F4EF13F0000E196E000E1A6E00F5
:1027E1000E1B6E000E1C6E1B8E1C6A00EF14F00097
:1027F1000E196E000E1A6E000E1B6E000E1C6E1965
:10280100501A101B101C10D8A409EF14F00BEF1470
:10281100F023EF14F0000E156E000E166E000E1769
:102821006E000E186E800E17127F0E1812255018AA
:102831001215C015F016C016F017C017F018C01801
:10284100F063EF15F02C50D8A429EF14F02BEF14FE
:10285100F035EF14F0000E156E000E166E000E1717
:102861006E000E186E63EF15F02D502CC01DF01E7A
:102871006A1D5E000E1E5A7F0E1D24266E000E1E5E
:1028810020276E15C021F016C022F017C023F018C2
:10289100C024F0000E156E000E166E000E176E00AD
:1028A1000E186E000E286E000E296E000E2A6E00A4
:1028B1000E2B6E2D6A95EF14F02D50D8B463EF14E2
:1028C100F065EF14F07CEF14F0D890213622362316
:1028D100362436D89015361636173618362BAE7480
:1028E100EF14F076EF14F077EF14F01580D89028FC
:1028F1003629362A362B361950215C1A5022581B9C
:102901005023581C502458D8A089EF14F08BEF1491
:10291100F094EF14F02B8C1950215E1A50225A1B9F
:1029210050235A1C50245A2D2A190E2D649BEF1442
:10293100F09DEF14F05DEF14F021502210231024CC
:1029410010D8B4A6EF14F0A8EF14F0C0EF14F028DB
:1029510080C0EF14F0D89015361636173618362B7E
:10296100AEB5EF14F0B7EF14F0B8EF14F01580D84E
:1029710090283629362A362B362606D8A027061760
:10298100AEC5EF14F0C7EF14F0ABEF14F02D6A2BC6
:10299100AECDEF14F0CFEF14F0F3EF14F0FF0E28EB
:1029A100141D6EFF0E29141E6EFF0E2A141F6E7F5A
:1029B1000E2B14206E1D501E101F102010D8B4E4D1
:1029C100EF14F0E6EF14F0EAEF14F0010E2D6EF3C0
:1029D100EF14F015A0EFEF14F0F1EF14F0F3EF1492
:1029E100F0E6EF14F02D50D8B4F9EF14F0FBEF142A
:1029F100F01FEF15F0010E1526000E1622172218F2
:102A01002218A006EF15F008EF15F01FEF15F015CD
:102A1100C01DF016C01EF017C01FF018C020F02016
:102A21003420321F321E321D321DC015F01EC01659
:102A3100F01FC017F020C018F0264A272A27BE2A07
:102A4100EF15F0275008E12628D8A02AEF15F02C21
:102A5100EF15F037EF15F0000E276E2668000E1502
:102A61006E000E166E000E176E000E186E27BE4415
:102A7100EF15F0275006E12604D8B042EF15F044D7
:102A8100EF15F051EF15F0000E276E000E266E00C7
:102A91000E156E000E166E000E176E000E186E25C6
:102AA1006A26C02CF02CA058EF15F05AEF15F05DF6
:102AB100EF15F0178E5EEF15F0179ED8902C301899
:102AC1006E17EF14F0120041504210D8A46BEF15AD
:102AD100F06DEF15F0F1EF15F0F60E036E2F0E0409
:102AE1006E800E056E0EEC0AF0020EEFEC08F00B94
:102AF1006E0B504B6E4C6A0F0E4B140B6E000E4C4E
:102B0100140C6E4BC00DF04CC00EF0040E0F6ED8BD
:102B1100900E320D320F2E88EF15F00A0E0D02F3D2
:102B2100CF10F0F4CF11F00E02F35011260B50101C
:102B3100244B6E0C5011204C6E010EEFEC08F00B83
:102B41006E0B504D6E4E6A0F0E4D140B6E000E4EF5
:102B5100140C6E4DC00DF04EC00EF0040E0F6ED869
:102B6100900E320D320F2EB0EF15F00A0E0D02F35A
:102B7100CF10F0F4CF11F00E02F35011260B5010CC
:102B8100244D6E0C5011204E6E000EEFEC08F00B30
:102B91006E0B50496E4A6A0F0E49140B6E000E4AB5
:102BA100140C6E49C00DF04AC00EF0040E0F6ED821
:102BB100900E320D320F2ED8EF15F00A0E0D02F3E2
:102BC100CF10F0F4CF11F00E02F35011260B50107C
:102BD10024496E0C5011204A6E000E426E010E41C6
:102BE1006E3F500B6E40500C6E3F4A402AD00E0B88
:102BF1005C070E0C58D8B000EF16F002EF16F06E1D
:102C0100EF16F0C00E096E4BC001F04CC002F0008F
:102C11000E046E0A0E036E7CEC0AF00150300F8E2A
:102C2100EC08F0C10E096E4BC001F04CC002F0007F
:102C31000E046E0A0E036EA6EC09F00150300F8EE1
:102C4100EC08F0C20E096E3A0E8EEC08F0C30E09C4
:102C51006E4DC001F04EC002F0000E046E0A0E036C
:102C61006E7CEC0AF00150300F8EEC08F0C40E09B6
:102C71006E4DC001F04EC002F0000E046E0A0E034C
:102C81006EA6EC09F00150300F8EEC08F0C50E096C
:102C91006E3A0E8EEC08F0C60E096E49C001F04A7C
:102CA100C002F0000E046E0A0E036E7CEC0AF00105
:102CB10050300F8EEC08F0C70E096E49C001F04A82
:102CC100C002F0000E046E0A0E036EA6EC09F001BC
:102CD10050300F8EEC08F0B9EF16F03F500B6E40FC
:102CE100500C6E3F4A402AA00E0B5C0F0E0C58D8B8
:102CF100B07DEF16F07FEF16F0B5EF16F0435044BC
:102D010010D8A486EF16F088EF16F094EF16F0C0F5
:102D11000E096E200E8EEC08F0C10E096E200E8E8B
:102D2100EC08F0B9EF16F043044410D8A49BEF1659
:102D3100F09DEF16F0A9EF16F0C30E096E200E8E6E
:102D4100EC08F0C40E096E200E8EEC08F0B9EF16F7
:102D5100F0C60E096E200E8EEC08F0C70E096E202B
:102D61000E8EEC08F0B9EF16F0000E406E000E3F2B
:102D71006E0B0E5618D8A4C0EF16F0C2EF16F0284D
:102D8100EF17F04BC001F04CC002F0000E046E0AC8
:102D91000E036EA6EC09F001C00BF002C00CF04B63
:102DA100C001F04CC002F0000E046E0A0E036E7CEE
:102DB100EC0AF00138F00B0B10086E020EA6EC08BD
:102DC100F04DC001F04EC002F0000E046E0A0E0379
:102DD1006EA6EC09F001C00BF002C00CF04DC00171
:102DE100F04EC002F0000E046E0A0E036E7CEC0A77
:102DF100F00138F00B0B10086E010EA6EC08F0493B
:102E0100C001F04AC002F0000E046E0A0E036EA665
:102E1100EC09F001C00BF002C00CF049C001F04A0E
:102E2100C002F0000E046E0A0E036E7CEC0AF00183
:102E310038F00B0B10086E000EA6EC08F0010E0125
:102E410001C06F000E426E000E416E38EF17F00A9E
:102E51000E5618D8A42FEF17F031EF17F038EF17EF
:102E6100F0010E0101C06F000E426E000E416E5660
:102E710004D8A43EEF17F040EF17F08CEF17F043A2
:102E8100504410D8A447EF17F049EF17F059EF1746
:102E9100F0170E4B184C10D8A451EF17F053EF1741
:102EA100F057EF17F0000E4C6E000E4B6E4B4A4C74
:102EB1002A43044410D8A460EF17F062EF17F072B0
:102EC100EF17F03B0E4D184E10D8A46AEF17F06CB7
:102ED100EF17F070EF17F0000E4E6E000E4D6E4DB5
:102EE1004A4E2A020E43184410D8A47AEF17F07CF8
:102EF100EF17F08CEF17F03B0E49184A10D8A48455
:102F0100EF17F086EF17F08AEF17F0000E4A6E0008
:102F11000E496E494A4A2A020E5618D8A493EF1751
:102F2100F095EF17F0A5EF17F0434A442A030E433B
:102F3100184410D8A49FEF17F0A1EF17F0A5EF17D1
:102F4100F0000E446E000E436E880E036E2F0E04C9
:102F51006EC80E056E0EEC0AF0880E036E2F0E047D
:102F61006E880E056E0EEC0AF01200002320544903
:102F71004D45202020202045562053500A0D002089
:102F81002020202020202020202020202020200060
:102F91002020444F574E4C4F4144204C4F47202056
:102FA1000020205355434345535346554C4C59201B
:102FB100200054494D452020202020204556202026
:102FC100535000232054494D4520202020204556B0
:102FD100205350004E4F204C4F4720522050524515
:102FE10053454E5400202020434C454152204C4F24
:0F2FF100472020200048483A4D4D3A53530000E6
:020000040020DA
:08000000FFFFFFFFFFFFFFFF00
:020000040030CA
:0E000000FF071F1FFF8285FF0FC00FE00F409C
:00000001FF
